{
  "contractName": "Ballotbox",
  "abi": [
    {
      "inputs": [
        {
          "components": [
            {
              "internalType": "address",
              "name": "contractAddress",
              "type": "address"
            },
            {
              "internalType": "uint256",
              "name": "merkleTreeDepth",
              "type": "uint256"
            }
          ],
          "internalType": "struct ISemaphoreVoting.Verifier[]",
          "name": "_verifiers",
          "type": "tuple[]"
        }
      ],
      "stateMutability": "nonpayable",
      "type": "constructor"
    },
    {
      "anonymous": false,
      "inputs": [
        {
          "indexed": false,
          "internalType": "address",
          "name": "agent1",
          "type": "address"
        },
        {
          "indexed": false,
          "internalType": "string",
          "name": "CID",
          "type": "string"
        }
      ],
      "name": "emitNewQuestion",
      "type": "event"
    },
    {
      "anonymous": false,
      "inputs": [
        {
          "indexed": false,
          "internalType": "address",
          "name": "agent3",
          "type": "address"
        },
        {
          "indexed": false,
          "internalType": "string",
          "name": "CID",
          "type": "string"
        },
        {
          "indexed": false,
          "internalType": "string",
          "name": "email",
          "type": "string"
        }
      ],
      "name": "emitNewRequest",
      "type": "event"
    },
    {
      "anonymous": false,
      "inputs": [
        {
          "indexed": false,
          "internalType": "string",
          "name": "CID",
          "type": "string"
        },
        {
          "indexed": false,
          "internalType": "bool",
          "name": "result",
          "type": "bool"
        }
      ],
      "name": "emitPollFinished",
      "type": "event"
    },
    {
      "anonymous": false,
      "inputs": [
        {
          "indexed": false,
          "internalType": "string",
          "name": "CID",
          "type": "string"
        }
      ],
      "name": "emitPollStarted",
      "type": "event"
    },
    {
      "inputs": [
        {
          "internalType": "string",
          "name": "",
          "type": "string"
        }
      ],
      "name": "answerLedger",
      "outputs": [
        {
          "internalType": "string",
          "name": "CID",
          "type": "string"
        }
      ],
      "stateMutability": "view",
      "type": "function",
      "constant": true
    },
    {
      "inputs": [
        {
          "internalType": "string",
          "name": "",
          "type": "string"
        }
      ],
      "name": "questionLedger",
      "outputs": [
        {
          "internalType": "address",
          "name": "agent1",
          "type": "address"
        },
        {
          "internalType": "string",
          "name": "CID",
          "type": "string"
        }
      ],
      "stateMutability": "view",
      "type": "function",
      "constant": true
    },
    {
      "inputs": [
        {
          "internalType": "string",
          "name": "",
          "type": "string"
        }
      ],
      "name": "requestLedger",
      "outputs": [
        {
          "internalType": "string",
          "name": "CID",
          "type": "string"
        },
        {
          "internalType": "string",
          "name": "email",
          "type": "string"
        }
      ],
      "stateMutability": "view",
      "type": "function",
      "constant": true
    },
    {
      "inputs": [
        {
          "internalType": "string",
          "name": "CID",
          "type": "string"
        }
      ],
      "name": "newQuestionBallotbox",
      "outputs": [
        {
          "internalType": "bool",
          "name": "",
          "type": "bool"
        }
      ],
      "stateMutability": "nonpayable",
      "type": "function"
    },
    {
      "inputs": [
        {
          "internalType": "uint256",
          "name": "pollId",
          "type": "uint256"
        },
        {
          "internalType": "uint256",
          "name": "merkleTreeDepth",
          "type": "uint256"
        }
      ],
      "name": "createPollBallotbox",
      "outputs": [],
      "stateMutability": "nonpayable",
      "type": "function"
    },
    {
      "inputs": [
        {
          "internalType": "uint256",
          "name": "pollId",
          "type": "uint256"
        },
        {
          "internalType": "uint256",
          "name": "identityCommitment",
          "type": "uint256"
        }
      ],
      "name": "addVoterBallotbox",
      "outputs": [],
      "stateMutability": "nonpayable",
      "type": "function"
    },
    {
      "inputs": [
        {
          "internalType": "uint256",
          "name": "pollId",
          "type": "uint256"
        },
        {
          "internalType": "uint256",
          "name": "encryptionKey",
          "type": "uint256"
        }
      ],
      "name": "startPollBallotbox",
      "outputs": [],
      "stateMutability": "nonpayable",
      "type": "function"
    },
    {
      "inputs": [
        {
          "internalType": "bytes32",
          "name": "vote",
          "type": "bytes32"
        },
        {
          "internalType": "uint256",
          "name": "nullifierHash",
          "type": "uint256"
        },
        {
          "internalType": "uint256",
          "name": "pollId",
          "type": "uint256"
        },
        {
          "internalType": "uint256[8]",
          "name": "proof",
          "type": "uint256[8]"
        }
      ],
      "name": "castVoteBallotbox",
      "outputs": [],
      "stateMutability": "nonpayable",
      "type": "function"
    },
    {
      "inputs": [
        {
          "internalType": "uint256",
          "name": "pollId",
          "type": "uint256"
        },
        {
          "internalType": "uint256",
          "name": "decryptionKey",
          "type": "uint256"
        }
      ],
      "name": "endPollBallotbox",
      "outputs": [],
      "stateMutability": "nonpayable",
      "type": "function"
    },
    {
      "inputs": [
        {
          "internalType": "string",
          "name": "CID",
          "type": "string"
        },
        {
          "internalType": "string",
          "name": "email",
          "type": "string"
        }
      ],
      "name": "requestData",
      "outputs": [
        {
          "internalType": "bool",
          "name": "",
          "type": "bool"
        }
      ],
      "stateMutability": "nonpayable",
      "type": "function"
    },
    {
      "inputs": [],
      "name": "getQuestion",
      "outputs": [
        {
          "internalType": "string",
          "name": "",
          "type": "string"
        }
      ],
      "stateMutability": "view",
      "type": "function",
      "constant": true
    },
    {
      "inputs": [],
      "name": "getRequest",
      "outputs": [
        {
          "components": [
            {
              "internalType": "string",
              "name": "CID",
              "type": "string"
            },
            {
              "internalType": "string",
              "name": "email",
              "type": "string"
            }
          ],
          "internalType": "struct Ballotbox.request",
          "name": "",
          "type": "tuple"
        }
      ],
      "stateMutability": "view",
      "type": "function",
      "constant": true
    },
    {
      "inputs": [],
      "name": "getResult",
      "outputs": [
        {
          "internalType": "bool",
          "name": "",
          "type": "bool"
        }
      ],
      "stateMutability": "view",
      "type": "function",
      "constant": true
    },
    {
      "inputs": [],
      "name": "deposit",
      "outputs": [],
      "stateMutability": "payable",
      "type": "function",
      "payable": true
    }
  ],
  "bytecode": "0x60806040523480156200001157600080fd5b506040516200272d3803806200272d833981016040819052620000349162000171565b806040516200004390620000bd565b6200004f91906200025f565b604051809103906000f0801580156200006c573d6000803e3d6000fd5b5060008054600160a060020a031916600160a060020a0392909216919091178155604080516020810191829052829052620000ab9160049190620000cb565b50506007805460ff191690556200039c565b611124806200160983390190565b828054620000d99062000317565b90600052602060002090601f016020900481019282620000fd576000855562000148565b82601f106200011857805160ff191683800117855562000148565b8280016001018555821562000148579182015b82811115620001485782518255916020019190600101906200012b565b50620001569291506200015a565b5090565b5b808211156200015657600081556001016200015b565b6000602080838503121562000184578182fd5b82516001604060020a03808211156200019b578384fd5b818501915085601f830112620001af578384fd5b815181811115620001c457620001c46200036d565b620001d38485830201620002e4565b81815284810192508385016040808402860187018a1015620001f3578788fd5b8795505b83861015620002515780828b0312156200020f578788fd5b62000219620002b9565b8251600160a060020a03811681146200023057898afd5b815282880151888201528552600195909501949386019390810190620001f7565b509098975050505050505050565b602080825282518282018190526000919060409081850190868401855b82811015620002ac5781518051600160a060020a031685528601518685015292840192908501906001016200027c565b5091979650505050505050565b604080519081016001604060020a0381118282101715620002de57620002de6200036d565b60405290565b604051601f8201601f191681016001604060020a03811182821017156200030f576200030f6200036d565b604052919050565b6002810460018216806200032c57607f821691505b6020821081141562000367577f4e487b7100000000000000000000000000000000000000000000000000000000600052602260045260246000fd5b50919050565b7f4e487b7100000000000000000000000000000000000000000000000000000000600052604160045260246000fd5b61125d80620003ac6000396000f3fe6080604052600436106100fa576000357c010000000000000000000000000000000000000000000000000000000090048063c1d0d17b1161009c578063d7a356be11610076578063d7a356be14610258578063db219e0314610278578063de292789146102a5578063eff38f92146102c257600080fd5b8063c1d0d17b14610216578063c2bb515f14610236578063d0e30db01461015657600080fd5b8063657e75c5116100d8578063657e75c514610188578063684b207f146101a85780636f458963146101d6578063794587c0146101f657600080fd5b80630e848817146100ff57806336708ac814610136578063397ad84a14610158575b600080fd5b34801561010b57600080fd5b5061011f61011a366004610e90565b6102d7565b60405161012d929190611036565b60405180910390f35b34801561014257600080fd5b50610156610151366004610f2c565b610395565b005b34801561016457600080fd5b50610178610173366004610e90565b610459565b604051901515815260200161012d565b34801561019457600080fd5b506101566101a3366004610f2c565b6105a2565b3480156101b457600080fd5b506101c86101c3366004610e90565b610624565b60405161012d9291906110dc565b3480156101e257600080fd5b506101566101f1366004610f2c565b6106d8565b34801561020257600080fd5b50610156610211366004610f2c565b6107b5565b34801561022257600080fd5b50610156610231366004610e4b565b61084a565b34801561024257600080fd5b5061024b610951565b60405161012d9190611141565b34801561026457600080fd5b50610178610273366004610ecb565b610a9b565b34801561028457600080fd5b50610298610293366004610e90565b610b75565b60405161012d91906110c2565b3480156102b157600080fd5b50600754610100900460ff16610178565b3480156102ce57600080fd5b50610298610c1e565b80516020818301810180516001808352938301929094019190912092905281549082018054600160a060020a039092169291610312906111a6565b80601f016020809104026020016040519081016040528092919081815260200182805461033e906111a6565b801561038b5780601f106103605761010080835404028352916020019161038b565b820191906000526020600020905b81548152906001019060200180831161036e57829003601f168201915b5050505050905082565b600060088190556009819055546040517fb359dd430000000000000000000000000000000000000000000000000000000081526004810184905260248101839052600160a060020a039091169063b359dd4390604401600060405180830381600087803b15801561040557600080fd5b505af1158015610419573d6000803e3d6000fd5b505050507fd17b281aab5556b2f98a03280661b3ae564be2704d70986f0c1b8de2e76de908600460405161044d919061110a565b60405180910390a15050565b60075460009060ff16156104f3576040517f08c379a000000000000000000000000000000000000000000000000000000000815260206004820152602d60248201527f506c656173652061736b20796f7572207175657374696f6e206166746572207460448201527f6865206e65787420726f756e6400000000000000000000000000000000000000606482015260840160405180910390fd5b6000600183604051610505919061101a565b908152604051908190036020908101909120805473ffffffffffffffffffffffffffffffffffffffff191633178155845190925061054b91600184019190860190610cb0565b50825161055f906004906020860190610cb0565b507fe75f750e761a6b160951b527287673233f3d8c611e5e13e8f912e5aa1168587c3384604051610591929190611036565b60405180910390a150600192915050565b6000546040517f0a120bb00000000000000000000000000000000000000000000000000000000081526004810184905260248101839052600160a060020a0390911690630a120bb090604401600060405180830381600087803b15801561060857600080fd5b505af115801561061c573d6000803e3d6000fd5b505050505050565b805160208183018101805160038252928201919093012091528054819061064a906111a6565b80601f0160208091040260200160405190810160405280929190818152602001828054610676906111a6565b80156106c35780601f10610698576101008083540402835291602001916106c3565b820191906000526020600020905b8154815290600101906020018083116106a657829003601f168201915b505050505090806001018054610312906111a6565b6000546040517fbbd8c7db0000000000000000000000000000000000000000000000000000000081526004810184905260248101839052600160a060020a039091169063bbd8c7db90604401600060405180830381600087803b15801561073e57600080fd5b505af1158015610752573d6000803e3d6000fd5b50506009546008546007805461ffff19169290911161010090810260ff191692909217908190556040517f1c633aaae76a487fd6dd2c4fed34a530451e70c3d30ae1367e38d855327ef06e945061044d935060049260ff9204919091169061111d565b6000546040517ff391f75d0000000000000000000000000000000000000000000000000000000081526004810184905230602482015260448101839052600160a060020a039091169063f391f75d90606401600060405180830381600087803b15801561082157600080fd5b505af1158015610835573d6000803e3d6000fd5b50506007805460ff1916600117905550505050565b837f3100000000000000000000000000000000000000000000000000000000000000141561088c5760088054906000610882836111e4565b91905055506108c9565b837f300000000000000000000000000000000000000000000000000000000000000014156108c45760098054906000610882836111e4565b61094b565b6000546040517f633f439d000000000000000000000000000000000000000000000000000000008152600160a060020a039091169063633f439d90610918908790879087908790600401611096565b600060405180830381600087803b15801561093257600080fd5b505af1158015610946573d6000803e3d6000fd5b505050505b50505050565b60408051808201909152606080825260208201526005604051806040016040529081600082018054610982906111a6565b80601f01602080910402602001604051908101604052809291908181526020018280546109ae906111a6565b80156109fb5780601f106109d0576101008083540402835291602001916109fb565b820191906000526020600020905b8154815290600101906020018083116109de57829003601f168201915b50505050508152602001600182018054610a14906111a6565b80601f0160208091040260200160405190810160405280929190818152602001828054610a40906111a6565b8015610a8d5780601f10610a6257610100808354040283529160200191610a8d565b820191906000526020600020905b815481529060010190602001808311610a7057829003601f168201915b505050505081525050905090565b600080600384604051610aae919061101a565b9081526020016040518091039020905083816000019080519060200190610ad6929190610cb0565b508251610aec9060018301906020860190610cb0565b508054819060059081908390610b01906111a6565b610b0c929190610d34565b506001820181600101908054610b21906111a6565b610b2c929190610d34565b509050507febb936fabcf79e1a3013317d8d2353737b82fcb30665a68bdb1de6592ccd3a8b338585604051610b6393929190611058565b60405180910390a15060019392505050565b8051602081830181018051600282529282019190930120915280548190610b9b906111a6565b80601f0160208091040260200160405190810160405280929190818152602001828054610bc7906111a6565b8015610c145780601f10610be957610100808354040283529160200191610c14565b820191906000526020600020905b815481529060010190602001808311610bf757829003601f168201915b5050505050905081565b606060048054610c2d906111a6565b80601f0160208091040260200160405190810160405280929190818152602001828054610c59906111a6565b8015610ca65780601f10610c7b57610100808354040283529160200191610ca6565b820191906000526020600020905b815481529060010190602001808311610c8957829003601f168201915b5050505050905090565b828054610cbc906111a6565b90600052602060002090601f016020900481019282610cde5760008555610d24565b82601f10610cf757805160ff1916838001178555610d24565b82800160010185558215610d24579182015b82811115610d24578251825591602001919060010190610d09565b50610d30929150610daf565b5090565b828054610d40906111a6565b90600052602060002090601f016020900481019282610d625760008555610d24565b82601f10610d735780548555610d24565b82800160010185558215610d2457600052602060002091601f016020900482015b82811115610d24578254825591600101919060010190610d94565b5b80821115610d305760008155600101610db0565b600082601f830112610dd4578081fd5b813567ffffffffffffffff80821115610def57610def61120e565b604051601f8301601f19908116603f01168101908282118183101715610e1757610e1761120e565b81604052838152866020858801011115610e2f578485fd5b8360208701602083013792830160200193909352509392505050565b600080600080610160808688031215610e62578485fd5b853594506020860135935060408601359250868187011115610e82578182fd5b509295919450926060019150565b600060208284031215610ea1578081fd5b813567ffffffffffffffff811115610eb7578182fd5b610ec384828501610dc4565b949350505050565b60008060408385031215610edd578182fd5b823567ffffffffffffffff80821115610ef4578384fd5b610f0086838701610dc4565b93506020850135915080821115610f15578283fd5b50610f2285828601610dc4565b9150509250929050565b60008060408385031215610f3e578182fd5b50508035926020909101359150565b60008151808452610f6581602086016020860161117a565b601f01601f19169290920160200192915050565b805460009060028104600180831680610f9357607f831692505b6020808410821415610fb65760e060020a634e487b710286526022600452602486fd5b83885260208801828015610fd15760018114610fe25761100d565b60ff1987168252828201975061100d565b60008981526020902060005b8781101561100757815484820152908601908401610fee565b83019850505b5050505050505092915050565b6000825161102c81846020870161117a565b9190910192915050565b600160a060020a0383168152604060208201526000610ec36040830184610f4d565b600160a060020a038416815260606020820152600061107a6060830185610f4d565b828103604084015261108c8185610f4d565b9695505050505050565b848152602081018490526040810183905261016081016101008360608401376000815295945050505050565b6020815260006110d56020830184610f4d565b9392505050565b6040815260006110ef6040830185610f4d565b82810360208401526111018185610f4d565b95945050505050565b6020815260006110d56020830184610f79565b6040815260006111306040830185610f79565b905082151560208301529392505050565b60208152600082516040602084015261115d6060840182610f4d565b90506020840151601f198483030160408501526111018282610f4d565b60005b8381101561119557818101518382015260200161117d565b8381111561094b5750506000910152565b6002810460018216806111ba57607f821691505b602082108114156111de5760e060020a634e487b7102600052602260045260246000fd5b50919050565b60006000198214156112075760e060020a634e487b710281526011600452602481fd5b5060010190565b60e060020a634e487b7102600052604160045260246000fdfea2646970667358221220c85935cff5a8a8cf7ecf1246f68a306d91a95d28a45f6550e5c0b2e2d867582264736f6c6343000804003360806040523480156200001157600080fd5b506040516200112438038062001124833981016040819052620000349162000120565b60005b81518160ff1610156200011857818160ff168151811062000081577f4e487b7100000000000000000000000000000000000000000000000000000000600052603260045260246000fd5b60200260200101516000015160016000848460ff1681518110620000ce577f4e487b7100000000000000000000000000000000000000000000000000000000600052603260045260246000fd5b602002602001015160200151815260200190815260200160002060006101000a815481600160a060020a030219169083600160a060020a0316021790555080600101905062000037565b50506200029b565b6000602080838503121562000133578182fd5b82516001604060020a03808211156200014a578384fd5b818501915085601f8301126200015e578384fd5b8151818111156200017357620001736200026c565b62000182848583020162000239565b81815284810192508385016040808402860187018a1015620001a2578788fd5b8795505b83861015620002005780828b031215620001be578788fd5b620001c86200020e565b8251600160a060020a0381168114620001df57898afd5b815282880151888201528552600195909501949386019390810190620001a6565b509098975050505050505050565b604080519081016001604060020a03811182821017156200023357620002336200026c565b60405290565b604051601f8201601f191681016001604060020a03811182821017156200026457620002646200026c565b604052919050565b7f4e487b7100000000000000000000000000000000000000000000000000000000600052604160045260246000fd5b610e7980620002ab6000396000f3fe608060405234801561001057600080fd5b50600436106100a5576000357c010000000000000000000000000000000000000000000000000000000090048063b359dd4311610078578063b359dd4314610127578063bbd8c7db1461013a578063dabc4d511461014d578063f391f75d1461017057600080fd5b80630a120bb0146100aa578063633f439d146100bf578063638480be146100d25780636389e10714610107575b600080fd5b6100bd6100b8366004610d4f565b610183565b005b6100bd6100cd366004610cb0565b610241565b6100f56100e0366004610cf5565b60009081526020819052604090206002015490565b60405190815260200160405180910390f35b6100f5610115366004610cf5565b60009081526020819052604090205490565b6100bd610135366004610d4f565b610441565b6100bd610148366004610d4f565b610562565b6100f561015b366004610cf5565b60009081526020819052604090206001015490565b6100bd61017e366004610d0d565b61068e565b6000828152600260205260409020548290600160a060020a031633146101bf5760405160e060020a63e4a34e1502815260040160405180910390fd5b600083815260026020819052604082205460a060020a900460ff16908111156101fb5760e060020a634e487b7102600052602160045260246000fd5b14610232576040517f67f5eebb00000000000000000000000000000000000000000000000000000000815260040160405180910390fd5b61023c83836107d8565b505050565b6000828152600260205260409020548290600160a060020a0316331461027d5760405160e060020a63e4a34e1502815260040160405180910390fd5b600083815260026020818152604080842081518083019092528054600160a060020a03811683529193909284019160a060020a900460ff16908111156102d65760e060020a634e487b7102600052602160045260246000fd5b60028111156102f85760e060020a634e487b7102600052602160045260246000fd5b90525090506001816020015160028111156103265760e060020a634e487b7102600052602160045260246000fd5b1461035d576040517fe1b6c09100000000000000000000000000000000000000000000000000000000815260040160405180910390fd5b60008581526003602052604090205460ff16156103a6576040517f948d067400000000000000000000000000000000000000000000000000000000815260040160405180910390fd5b600084815260208181526040808320805460019182015481865291909352922054909190600160a060020a03166103e189838a8a8a86610918565b60008881526003602052604090819020805460ff191660011790555187907f9259c591af3680137739dc2b275c388eb1639a143b49022e7062fa162f14776d9061042e908c815260200190565b60405180910390a2505050505050505050565b6000828152600260205260409020548290600160a060020a0316331461047d5760405160e060020a63e4a34e1502815260040160405180910390fd5b600083815260026020819052604082205460a060020a900460ff16908111156104b95760e060020a634e487b7102600052602160045260246000fd5b146104f0576040517f67f5eebb00000000000000000000000000000000000000000000000000000000815260040160405180910390fd5b600083815260026020908152604091829020805474ff0000000000000000000000000000000000000000191660a060020a179055815185815290810184905233917f426c5e6bd38728569cc4e1f0a309f506d4c1bc56189920d59343af2639b60d3e91015b60405180910390a2505050565b6000828152600260205260409020548290600160a060020a0316331461059e5760405160e060020a63e4a34e1502815260040160405180910390fd5b600160008481526002602081905260409091205460a060020a900460ff16908111156105dd5760e060020a634e487b7102600052602160045260246000fd5b14610614576040517fe1b6c09100000000000000000000000000000000000000000000000000000000815260040160405180910390fd5b600083815260026020908152604091829020805474ff0000000000000000000000000000000000000000191674020000000000000000000000000000000000000000179055815185815290810184905233917f4a0c303670c99ff9b9eab216bcca4f03007fbece83818599a2946ea62c541fde9101610555565b600081815260016020526040902054600160a060020a03166106dc576040517fecf64f1200000000000000000000000000000000000000000000000000000000815260040160405180910390fd5b6106e883826000610b02565b6040805180820190915260008082526020820152600160a060020a038084168252600085815260026020818152604090922084518154941673ffffffffffffffffffffffffffffffffffffffff1985168117825592850151859491939092849274ffffffffffffffffffffffffffffffffffffffffff19169091179060a060020a90849081111561078c5760e060020a634e487b7102600052602160045260246000fd5b021790555050604051858152600160a060020a03851691507fb447d309fd3b1a27466cdb08ccc02ee5188e9c71fc58af042bafe3e0bb451230906020015b60405180910390a250505050565b60008281526020819052604090205461081d576040517f029f057900000000000000000000000000000000000000000000000000000000815260040160405180910390fd5b6000828152602081905260409081902090517f168703fa00000000000000000000000000000000000000000000000000000000815260048101919091526024810182905273__IncrementalBinaryTree_________________9063168703fa9060440160006040518083038186803b15801561089857600080fd5b505af41580156108ac573d6000803e3d6000fd5b50505060008381526020819052604081206001808201546002909201549193506108d591610e1d565b604080518281526020810186905290810184905290915084907f19239b3f93cd10558aaf11423af70c77763bf54f52bcc75bfa74d4d13548cde9906060016107ca565b600061092387610c73565b905081600160a060020a0316635fe8c13b6040518060400160405280866000600881106109635760e060020a634e487b7102600052603260045260246000fd5b60200201358152602001866001600881106109915760e060020a634e487b7102600052603260045260246000fd5b60200201359052604080516080810182528782013591810191825290819060608201896003602002013581525081526020016040518060400160405280896004600881106109f25760e060020a634e487b7102600052603260045260246000fd5b6020020135815260200189600560088110610a205760e060020a634e487b7102600052603260045260246000fd5b60200201359052905260408051808201909152808860066020020135815260200188600760088110610a655760e060020a634e487b7102600052603260045260246000fd5b602002013581525060405180608001604052808c81526020018b81526020018781526020018a8152506040518563ffffffff167c0100000000000000000000000000000000000000000000000000000000028152600401610ac99493929190610d99565b60006040518083038186803b158015610ae157600080fd5b505afa158015610af5573d6000803e3d6000fd5b5050505050505050505050565b7f30644e72e131a029b85045b68181585d2833e84879b9709143e1f593f00000018310610b5b576040517fa61c78ca00000000000000000000000000000000000000000000000000000000815260040160405180910390fd5b60008381526020819052604090205415610ba1576040517f8121725b00000000000000000000000000000000000000000000000000000000815260040160405180910390fd5b6000838152602081905260409081902090517f1095fbb40000000000000000000000000000000000000000000000000000000081526004810191909152602481018390526044810182905273__IncrementalBinaryTree_________________90631095fbb49060640160006040518083038186803b158015610c2357600080fd5b505af4158015610c37573d6000803e3d6000fd5b505060408051858152602081018590528693507f0d000126c26c1bbe400fd2332187f75d58b69306f9ec47b408686189d3a00833925001610555565b6000600882604051602001610c8a91815260200190565b60408051601f19818403018152919052805160209091012060029190910a900492915050565b600080600080610160808688031215610cc7578485fd5b853594506020860135935060408601359250868187011115610ce7578182fd5b509295919450926060019150565b600060208284031215610d06578081fd5b5035919050565b600080600060608486031215610d21578283fd5b833592506020840135600160a060020a0381168114610d3e578283fd5b929592945050506040919091013590565b60008060408385031215610d61578182fd5b50508035926020909101359150565b8060005b6002811015610d93578151845260209384019390910190600101610d74565b50505050565b6101808101610da88287610d70565b60408083018660005b6002811015610dd857610dc5838351610d70565b9183019160209190910190600101610db1565b50505050610de960c0830185610d70565b61010082018360005b6004811015610e11578151835260209283019290910190600101610df2565b50505095945050505050565b600082821015610e3e5760e060020a634e487b710281526011600452602481fd5b50039056fea264697066735822122054d3347a37d7d54c19cb7602add8b34f326b8fbc0fdfc6973a10870d8eb109ce64736f6c63430008040033",
  "immutableReferences": {},
  "source": "// SPDX-License-Identifier: MIT\r\npragma solidity ^0.8.4;\r\n\r\nimport \"@semaphore-protocol/contracts/interfaces/ISemaphoreVoting.sol\";\r\nimport \"@semaphore-protocol/contracts/extensions/SemaphoreVoting.sol\";\r\n\r\ncontract Ballotbox {\r\n\r\n    ISemaphoreVoting semaphoreVoting;\r\n\r\n    struct question {\r\n        address agent1;\r\n        string CID;\r\n    }\r\n\r\n    struct answer {\r\n        string CID;\r\n    }\r\n\r\n    struct request {\r\n        string CID;\r\n        string email;\r\n    }\r\n\r\n    mapping (string => question) public questionLedger;\r\n    mapping (string => answer) public answerLedger;\r\n    mapping (string => request) public requestLedger;\r\n\r\n    string currentCID;\r\n    request currentRequest;\r\n    bool pollIsActive;\r\n    bool result;\r\n    uint256 resultTrue;\r\n    uint256 resultFalse;\r\n\r\n    event emitNewQuestion(address agent1, string CID);\r\n    event emitNewRequest(address agent3, string CID, string email);\r\n    event emitPollStarted(string CID);\r\n    event emitPollFinished(string CID, bool result);\r\n\r\n    constructor (ISemaphoreVoting.Verifier[] memory _verifiers)\r\n    {\r\n        semaphoreVoting = new SemaphoreVoting(_verifiers);\r\n        currentCID = \"\";\r\n        pollIsActive = false;\r\n    }\r\n\r\n    ///\r\n    /// Agent 1 functionality\r\n    ///\r\n\r\n    function newQuestionBallotbox (\r\n        string memory CID\r\n    ) \r\n        public returns (bool) \r\n    {\r\n        require(pollIsActive == false, \"Please ask your question after the next round\");\r\n        question storage thisQuestion = questionLedger[CID];\r\n        thisQuestion.agent1 = msg.sender;\r\n        thisQuestion.CID = CID;\r\n        currentCID = CID;\r\n        emit emitNewQuestion(msg.sender, CID);\r\n        return true;\r\n    }\r\n\r\n    ///\r\n    /// Agent 2 anon-voting functionality\r\n    ///\r\n\r\n    function createPollBallotbox(\r\n        uint256 pollId,\r\n        uint256 merkleTreeDepth\r\n    ) public {\r\n        semaphoreVoting.createPoll(pollId, address(this), merkleTreeDepth);\r\n        pollIsActive = true;\r\n    }\r\n\r\n    function addVoterBallotbox(\r\n        uint256 pollId, \r\n        uint256 identityCommitment\r\n    ) public {\r\n        semaphoreVoting.addVoter(pollId, identityCommitment);\r\n    }\r\n\r\n    function startPollBallotbox(\r\n        uint256 pollId, \r\n        uint256 encryptionKey\r\n    ) public {\r\n        resultTrue = 0;\r\n        resultFalse = 0;\r\n        semaphoreVoting.startPoll(pollId, encryptionKey);\r\n        emit emitPollStarted(currentCID);\r\n    }\r\n\r\n    function castVoteBallotbox(\r\n        bytes32 vote,\r\n        uint256 nullifierHash,\r\n        uint256 pollId,\r\n        uint256[8] calldata proof\r\n    ) public {\r\n        if (vote == \"1\") {\r\n            resultTrue++;\r\n        } else if (vote == \"0\") {\r\n            resultFalse++;\r\n        } else {\r\n            return;\r\n        }\r\n        semaphoreVoting.castVote(vote, nullifierHash, pollId, proof);\r\n    }\r\n\r\n    function endPollBallotbox(\r\n        uint256 pollId, \r\n        uint256 decryptionKey\r\n    ) public {\r\n        semaphoreVoting.endPoll(pollId, decryptionKey);\r\n        result = resultTrue > resultFalse;\r\n        pollIsActive = false;\r\n        emit emitPollFinished(currentCID, result);\r\n    }\r\n\r\n    ///\r\n    /// Agent 3 functionality\r\n    ///\r\n\r\n    function requestData(\r\n        string memory CID, \r\n        string memory email\r\n    ) \r\n        public returns (bool) \r\n    {\r\n        request storage thisRequest = requestLedger[CID];\r\n        thisRequest.CID = CID;\r\n        thisRequest.email = email;\r\n        currentRequest = thisRequest;\r\n        emit emitNewRequest(msg.sender, CID, email);\r\n        return true;  \r\n    }\r\n\r\n    ///\r\n    /// general utils\r\n    ///\r\n\r\n    function getQuestion() \r\n        public view returns (string memory) \r\n    {\r\n        return currentCID;\r\n    }\r\n\r\n    function getRequest()\r\n        public view returns (request memory)\r\n    {\r\n        return currentRequest;\r\n    }\r\n\r\n    function getResult() \r\n        public view returns (bool) \r\n    {\r\n        return result;\r\n    }\r\n\r\n    function deposit() public payable {}\r\n}",
  "sourcePath": "C:\\Users\\chenh\\Documents\\GitHub\\Ballotbox\\Ballotbox\\blockchain\\contracts\\Ballotbox.sol",
  "compiler": {
    "name": "solc",
    "version": "0.8.4+commit.c7e474f2.Emscripten.clang"
  },
  "schemaVersion": "3.4.11",
  "updatedAt": "2023-02-05T21:20:32.687Z",
  "networkType": "ethereum",
  "devdoc": {
    "kind": "dev",
    "methods": {},
    "version": 1
  },
  "userdoc": {
    "kind": "user",
    "methods": {
      "createPollBallotbox(uint256,uint256)": {
        "notice": " Agent 2 anon-voting functionality"
      },
      "getQuestion()": {
        "notice": " general utils"
      },
      "newQuestionBallotbox(string)": {
        "notice": " Agent 1 functionality"
      },
      "requestData(string,string)": {
        "notice": " Agent 3 functionality"
      }
    },
    "version": 1
  }
}